:020000020000FC
:2000000000400074084008140800683A00000000000000000000000000000000000000001E
:2000080006C000F4DEC00014068000B4D6A0BF1400102D4000103580003FFF06DEFFFC0486
:20001000DFC00315DF000215DF000204E03FFE15008000F410840004E0BFFF15010000B498
:2000180021000004001012C0E0BFFE171080012810000C1EE0BFFF1710C00104E0BFFE17DC
:2000200011000044E13FFE15010000442084983A18800015010002342128480400103D4077
:20002800003FF106E03FFE15003FEF06DEFFFD04DC0000152021883A2809883ADFC00215A1
:20003000DC4001152823883A0010140081400217010000742100570429000115100F883A62
:20003800880D883A8009883A001015C000FFFFC410C0092681400217018000B401C000444C
:2000400028800117318004048009883A103EE83A10BFFFE00085C83ADFC00217DC4001174B
:20004800DC000017DEC00304F800283A008000B41080C004200B883A1100001700100AC12E
:200050002005883A10C000071800022610800044003FFC061105C83AF800283A2880000B58
:200058001080020C100021262880008FDEFFFA04DC000015DFC00515DD000415DCC003152D
:20006000DC800215DC4001152821883A100012162027883A3025883A3823883A0501000451
:2000680004400B0E880F883AA440010E01C100048140008F900D883A9809883A0010214086
:200070000080050E88A3C83A90A5883A003FF4060005883A000007068080000B10801014ED
:200078008080000D00BFFFC40000020600BFFFC4F800283ADFC00517DD000417DCC003178C
:20008000DC800217DC400117DC000017DEC00604F800283ADEFFFD04DC000015040000B43B
:20008800DC4001158400C7042023883A2809883A300B883A380D883ADFC002158000001590
:200090000010440000FFFFC410C0031E80C000171800012688C00015DFC00217DC4001176A
:20009800DC000017DEC00304F800283ADEFFFC04DF000315DF000304E13FFD15E17FFE15F7
:2000A000E1BFFF15E0FFFE17E0BFFD1718800C2600000806E0BFFE1710C00104E0FFFE1592
:2000A800E0FFFD1719000104E13FFD1518C0001710C00015E0FFFE17E0BFFF1718BFF51E8E
:2000B0000001883AE037883ADF000017DEC00104F800283ADEFFFE04DFC00115DF00001519
:2000B800D839883A018000B43180C704014000B4294012040100007421058F04001026C00C
:2000C000018000743180080401400074294008040100007421000804001026C0018000B477
:2000C80031801204014000B4294000040100007421057D04001026C0001095800010B440B4
:2000D0000001883AE037883ADFC00117DF000017DEC00204F800283ADEFFFD04DFC0021535
:2000D800DF000115DF0001040009883A001057400001883A00105AC0018000B431800504E1
:2000E000014000B429400504010000B4210005040010C4800010A840010000742102B90419
:2000E800001124C0D0A00917D0E00A17D1200B17200D883A180B883A1009883A001003C00D
:2000F000E0BFFF150100004400108800E13FFF1700112600DEFFFD04DFC00215DF0001156A
:2000F800DF000104E13FFF15E13FFF1700108200E037883ADFC00117DF000017DEC00204DE
:20010000F800283ADEFFFE04DFC00115DF000015D839883AD0A0071710000326D0A00717D5
:20010800103EE83A00000106D0A00804E037883ADFC00117DF000017DEC00204F800283A60
:20011000DEFFF904DFC00615DF000515DF000504E13FFD15E17FFE15E1BFFF15E0BFFD174E
:200118001000081601400304E13FFD17001159801007883A008000B410805F041885883AD4
:20012000000001060005883AE0BFFB15E0BFFB1710002126E0BFFB1710800217108000CC84
:2001280010001826E0BFFB17108000171080061710001426E0BFFB17108000171080061715
:20013000E0FFFF17180D883AE17FFE17E13FFB17103EE83AE0BFFC15E0BFFC171000070E35
:20013800001040401007883AE0BFFC170085C83A1880001500BFFFC400000C06E0BFFC1712
:2001400000000A06001040401007883A008003441880001500000406001040401007883A3F
:20014800008014441880001500BFFFC4E037883ADFC00117DF000017DEC00204F800283A0C
:20015000DEFFFD04DFC00215DF000115DF000104E13FFF15D1600404E13FFF1700109E00D1
:20015800E037883ADFC00117DF000017DEC00204F800283ADEFFFD04DFC00215DF0001157A
:20016000DF000104E13FFF150010FCC0008000441001703A0001883AE037883ADFC00117C9
:20016800DF000017DEC00204F800283ADEFFFE04DFC00115DF000015D839883A010000B473
:2001700021004A04001054000001883AE037883ADFC00117DF000017DEC00204F800283A55
:20017800DEFFFA04DFC00515DF000415DF000404E13FFD15E17FFE15E1BFFF15E0BFFD17E8
:2001800010800017E0BFFC15E0BFFC1710C00A04E0BFFD1710800217100F883AE1BFFF1785
:20018800E17FFE171809883A00106A00E037883ADFC00117DF000017DEC00204F800283A01
:20019000DEFFFA04DFC00515DF000415DF000404E13FFD15E17FFE15E1BFFF15E0BFFD17D0
:2001980010800017E0BFFC15E0BFFC1710C00A04E0BFFD1710800217100F883AE1BFFF176D
:2001A000E17FFE171809883A001078C0E037883ADFC00117DF000017DEC00204F800283A1B
:2001A800DEFFF704DF000815DF000804E13FFC15E17FFD15E1BFFE15E1FFFF15E0BFFC177C
:2001B00010800017E0BFF915E0BFFD17E0BFF815E0BFFE17E0FFFD171885883AE0BFFA15C8
:2001B80000001206E0BFF91710800037E0BFFB15E0BFFB1710A0000C10000626E0BFF81793
:2001C00010C00044E0FFF815E0FFFB1710C0000500000606E0FFF817E0BFFD171880071EEF
:2001C800E0BFFF171090000C1000061EE0FFF817E0BFFA1718BFEB36000003060001883A20
:2001D000000001060001883AE0FFF817E0BFFD1718800426E0FFF817E0BFFD171885C83AA2
:2001D80000000606E0BFFF171090000C1000022600BFFD440000010600BFFEC4E037883A01
:2001E000DF000017DEC00104F800283ADEFFF904DF000615DF000604E13FFC15E17FFD15AC
:2001E800E1BFFE15E1FFFF15E0BFFC1710800017E0BFFA15E0BFFE17E0FFFD171885883A43
:2001F000E0BFFB1500000E06E0BFFA17108001041080003710BFFFEC10000926E0FFFA1737
:2001F800E0BFFD1711000044E13FFD151080000310803FCC1080201C10BFE0041880003533
:20020000E0FFFD17E0BFFB1718BFEF36E0BFFE17E037883ADF000017DEC00104F800283ABE
:20020800DEFFFE04DF000115DF000104E13FFF150005883AE037883ADF000017DEC00104B1
:20021000F800283ADEFFFE04DFC00115DF000015D839883AD0A0071710000326D0A00717C4
:20021800103EE83A00000106D0A00804E037883ADFC00117DF000017DEC00204F800283A4F
:20022000DEFFFB04DFC00415DF000315DF000304E13FFF15E0BFFF171000081601400304EE
:20022800E13FFF17001159801007883A008000B410805F041885883A000001060005883A69
:20023000E0BFFD15E0BFFD1710001926E0BFFD17108000171080041710000626E0BFFD1707
:200238001080001710800417E13FFD17103EE83A000001060005883AE0BFFE15E13FFF17FA
:200240000010F480E0BFFE171000070E001084401007883AE0BFFE170085C83A18800015AC
:2002480000BFFFC4000007060005883A00000506001084401007883A008014441880001503
:2002500000BFFFC4E037883ADFC00117DF000017DEC00204F800283ADEFFFF04DF000015B4
:20025800D839883A0001883AE037883ADF000017DEC00104F800283ADEFFFC04DF00031550
:20026000DF000304E13FFD15E17FFE15E1BFFF15E0BFFF17E037883ADF000017DEC0010418
:20026800F800283ADEFFFE04DFC00115DF000015D839883AD0A0071710000326D0A007176C
:20027000103EE83A00000106D0A00804E037883ADFC00117DF000017DEC00204F800283AF7
:20027800DEFFFA04DFC00515DF000415DF000404E13FFE15E17FFF15E0BFFE17100003265F
:20028000E0BFFE17108002171000061E00109A401007883A008005841880001500BFFA8417
:2002880000001306E0BFFE17E0FFFF17E0FFFC15E0BFFD15E0BFFD17E0FFFC1710C0011568
:20029000E0BFFC1710C00017E0BFFD1710C00015E0BFFC1710800017E0FFFD1710C00115EB
:20029800E0BFFC17E0FFFD1710C000150005883AE037883ADFC00117DF000017DEC00204CB
:2002A000F800283ADEFFFD04DFC00215DF000115DF0001040080007410857C04E0BFFF15BB
:2002A80000000606E0BFFF1710800017103EE83AE0BFFF1710BFFF04E0BFFF15E0FFFF172F
:2002B0000080007410857D0418BFF62E0001883AE037883ADFC00117DF000017DEC002043C
:2002B800F800283ADEFFFD04DFC00215DF000115DF0001040080007410857C04E0BFFF15A3
:2002C00000000606E0BFFF1710800017103EE83AE0BFFF1710BFFF04E0BFFF15E0FFFF1717
:2002C8000080007410857D0418BFF62E0001883AE037883ADFC00117DF000017DEC0020424
:2002D000F800283ADEFFFF04DF000015D839883A0001883AE037883ADF000017DEC00104D8
:2002D800F800283ADEFFF804DFC00715DF000615DC000515DF000604E13FFB15E17FFC159E
:2002E000E1BFFD15E1FFFE15E1BFFE17E17FFD17E13FFC170010DEC0E0BFFA15E0BFFA17F1
:2002E80010002216040000B484005F04E0BFFA17014003041009883A001159808085883A8B
:2002F00010C00017E0BFFB1710C00015040000B484005F04E0BFFA17014003041009883AFF
:2002F800001159808085883A1080010410C00017E0BFFB1710C00115040000B484005F0483
:20030000E0BFFA17014003041009883A001159808085883A1080020410C00017E0BFFB172B
:2003080010C00215E13FFA170010F4800001883AE6FFFF04DFC00217DF000117DC000017EC
:20031000DEC00304F800283ADEFFFB04DFC00415DF000315DF000304E13FFD15E17FFE15B8
:20031800E1BFFF1501C07FC401800044E17FFD17010000B4210062040010B64001C07FC48E
:20032000000D883AE17FFE17010000B421005F040010B64001C07FC401800044E17FFF17FB
:20032800010000B4210065040010B6400001883AE037883ADFC00117DF000017DEC0020483
:20033000F800283ADEFFFE04DFC00115DF000015D839883AD0A0071710000326D0A00717A3
:20033800103EE83A00000106D0A00804E037883ADFC00117DF000017DEC00204F800283A2E
:20034000DEFFFB04DFC00415DF000315DC000215DF000304E13FFE15E0BFFE1710800217A9
:2003480010D00034E0BFFE1710C00215E03FFD1500002306040000B484005F04E0BFFD173A
:20035000014003041009883A001159808085883A10C00017E0BFFE17108000171880151EAC
:20035800040000B484005F04E0BFFD17014003041009883A001159808085883A10800204C9
:200360001080001710000B0E01400304E13FFD17001159801007883A008000B410805F0447
:200368001887883AE0BFFE171880022600BFFCC400000806E0BFFD1710800044E0BFFD15DB
:20037000D0A006171007883AE0BFFD1718BFD92E0005883AE6FFFF04DFC00217DF00011718
:20037800DC000017DEC00304F800283ADEFFF604DFC00915DF000815DF000804E13FFD15C6
:20038000E17FFE15E1BFFF1500BFFFC4E0BFF91500BFFB44E0BFFA15E03FFB15D1600404F3
:20038800E13FFD170010FF00E0BFF815E0BFF8171000051EE13FFD1700110800E0BFF8158C
:2003900000800044E0BFFB15E0BFF81710002B26E13FF81700111880E0BFF915E0BFF91797
:200398001000030EE0BFF917E0BFFA150000250601400304E13FF917001159801007883A61
:2003A000008000B410805F041885883AE0BFFC15E0FFFE170090003410BFFFC41886703A75
:2003A800E0BFFC1710C00215E0BFFB171000051EE13FFC170010D000E0BFFA15E0BFFA1747
:2003B00010001016E0BFF8171080031710000826E0BFF81710800317E1FFFF17E1BFFE175E
:2003B800E17FFD17E13FFC17103EE83A000001060005883AE0BFFA150000020600BFFB448C
:2003C000E0BFFA15E0BFFA171000090EE13FF9170010F4800010CC401007883AE0BFFA173F
:2003C8000085C83A1880001500BFFFC400000106E0BFF917E037883ADFC00117DF00001723
:2003D000DEC00204F800283ADEFFFC04DFC00315DF000215DC000115DF000204E13FFE157B
:2003D800E0BFFE17108000D01000111E040000B484005F04E0BFFE17014003041009883A3C
:2003E000001159808085883A1080020410000015040000B484005F04E0BFFE1701400304F6
:2003E8001009883A001159808085883A100000150001883AE6FFFF04DFC00217DF000117EA
:2003F000DC000017DEC00304F800283ADEFFFF04DF000015D839883A000170FA0001883A26
:2003F800E037883ADF000017DEC00104F800283ADEFFFA04DFC00515DF000415DF000404A6
:20040000E13FFE15E17FFF15E0BFFF1710800017E0BFFC15E13FFE170010140010800044FC
:20040800E0BFFD1500000D06E0BFFC1710800217E0FFFD17180D883AE17FFE171009883A8B
:20041000001128001000021EE0BFFC1700000706E0BFFC1710800017E0BFFC15E0FFFC17A9
:20041800E0BFFF1718BFF01E0005883AE037883ADFC00117DF000017DEC00204F800283ADF
:20042000DEFFFB04DFC00415DF000315DF000304E13FFF15D0A00217E0BFFD1500003106A6
:20042800E0BFFD17108002171009883A00101400E0BFFE15E0BFFD1710C00217E0BFFE1757
:2004300010BFFFC41885883A1080000310803FCC1080201C10BFE00410800BD81000031E6A
:20043800E0BFFE1710BFFFC4E0BFFE15E0BFFE17E0FFFF171885883A1080000310803FCC76
:200440001080201C10BFE00410800BE01000081EE0BFFE17E0FFFF171885883A10800003D1
:2004480010803FCC1080201C10BFE00410000A1EE0BFFD1710800217E0FFFE17180D883A0B
:20045000E17FFF171009883A001128001000021EE0BFFD1700000706E0BFFD1710800017B8
:20045800E0BFFD15E0FFFD17D0A0020418BFCC1E0005883AE037883ADFC00117DF0000175C
:20046000DEC00204F800283ADEFFFA04DFC00515DF000415DC000315DF000404E13FFE15E4
:2004680000BFFA04E0BFFD15E03FFC1500001D06040000B484005F04E0BFFC17014003041A
:200470001009883A001159808085883A108000171000111E040000B484005F04E0BFFC17A9
:20047800014003041009883A001159808085883AE0FFFE1710C00015D0E00617E0BFFC1738
:200480001880020EE0BFFC17D0A00615E0BFFC17E0BFFD1500000606E0BFFC171080004482
:20048800E0BFFC15E0BFFC1710800810103FE01EE0BFFD17E6FFFF04DFC00217DF000117B3
:20049000DC000017DEC00304F800283A200B883A000F883A000D883A0009883A00112B01C5
:20049800DEFFFE04000B883ADC000015DFC001152021883A001140808009883A00115C0066
:2004A000218D883A218008262080000328C0000310C0022610C5C83AF800283A21000044E1
:2004A80029400044003FF7060005883AF800283A008000B41080BF0410C00017DEFFF904E2
:2004B000DC0000151C000C17DD400515DD000415DCC00315DC800215DC400115DFC00615BC
:2004B800202B883A2823883A3027883A3825883A1029883A8000021E1C000D041C000C15CD
:2004C0008080011700C007C41880110E00800034108000041000021E00BFFFC40000310691
:2004C80001002304000000001021883A103FFA2610000115A080001710C00C1780C00015E5
:2004D00014000C1580002215A8001D2600000606A8001B26808022171000091E008000341C
:2004D80010800004103FEC260100420400000000103FE92610004015100041158080221568
:2004E00081400117010000442947883A18C7883A10C7883A1CC000152148983A114040179E
:2004E800290AB03A114040151C80201500C00084A8C0031E10C041171908B03A11004115F9
:2004F0008080011710C00044108000841085883A1085883A80C0011580A1883A84400015EC
:2004F8000005883ADFC00617DD400517DD000417DCC00317DC800217DC400117DC000017DE
:20050000DEC00704F800283ADEFFF504DD000515050000B4DC800315DFC00A15DF00091523
:20050800DDC00815DD800715DD400615DCC00415DC400215DC000115D90000152825883A91
:20051000A500BF04A44000178CC00C178C400C04980045269C0001170090003410BFFFC410
:200518009D40221785BFFFC480A1883A8421883A8421883AAC2F883A840002049C21883A4F
:20052000B000271690000726A800041EB5BFFFC4BDFFFF04843FFF04003FF906B90020175D
:20052800913FFA1E9900011782000017213FFFC4B100021E9D8001150000010680000015BE
:20053000403FF2269F000117A8000526008000441592983AA9404017494A703A2800021E88
:20053800403EE83A00000906A90041174908703A2000041EB9400017D9000017403EE83A16
:2005400000000206B9000017403EE83A99000117E13FCC1E89000017993FDC26003FC906E0
:20054800008000341080000410000F2699400117990000172800091E20000826890000152A
:20055000A8000226A809883A000000009809883A000000008CC00017003FBD069823883A03
:200558002027883A003FBA06DFC00A17DF000917DDC00817DD800717DD400617DD00051752
:20056000DCC00417DC800317DC400217DC000117DEC00B04F800283A0005883A200007260A
:2005680020C0004C2008D07A180001261145883A294B883A203FFA1EF800283AF800283A1D
:20057000DEFFFD04DF000215DF000204E13FFF150001883AE0BFFF17E0BFFE15E0BFFE17A0
:2005780010000226002AF07000000106002AF0B0003FFF0661626D45646163722B2B736F45
:20058000000000200000000A7665642F61746A2F61755F67305F7472000000007665642FD6
:2005880061746A2F61755F67305F7472000000007665642F6C756E2F0000006C000000007C
:20059000000201080002011000020118000000000000000000000000000000000000000012
:20059800000000000000000000000000000000000000000000000000000000000000000043
:2005A00000000000000000000000000000000000000000000000000000000000000000003B
:2005A800000000000000000000000000000000000000000000000000000000000000000033
:2005B00000000000000000000000000000000000000000000000000000000000000000002B
:2005B80000000000000000000000000000000000000000000000000000000000000000041F
:2005C000000000000001000A000000000002000A0000000000000000000000000000000004
:2005C80000000000000200280000000000000000000105E0000106400000000000000000BC
:2005D00000000000000310500002030C0002030C0002003C00000000000000000000000048
:2005D8000001097800000000000000000000000000020154000000000000000000020154D3
:2005E0000000000000000000000201540000000000000000000000000000000000000000A4
:2005E8000000000000000000000000000000000000000000000000000000000000000000F3
:2005F0000000000000000000000000000000000000000000000000000000000000000000EB
:2005F8000000000000000000000000000000000000000000000000000000000000000000E3
:200600000000000000000000000000000000000000000000000000000000000000000000DA
:200608000000000000000000000000000000000000000000000000000000000000000000D2
:200610000000000000000000000000000000000000000000000000000000000000000000CA
:200618000000000000000000000000000000000000000000000000000000000000000000C2
:200620000000000000000000000000000000000000000000000000000000000000000000BA
:200628000000000000000000000000000000000000000000000000000000000000000000B2
:200630000000000000000000000000000000000000000000000000000000000000000000AA
:200638000000000000000000000000000000000000020048000200480002030400020304FC
:200640000002015400020154FFFFFFFF0000000000000000000000000000000000000000F0
:20064800000000000000000000000000000000000000000000000000000000000000000092
:2006500000000000000000000000000000000000000000000000000000000000000000008A
:20065800000000000000000000000000000000000000000000000000000000000000000082
:2006600000000000000000000000000000000000000000000000000000000000000000007A
:00000001FF
